{
  "contractName": "DecentralizedStoragePlatform",
  "abi": [
    {
      "anonymous": false,
      "inputs": [
        {
          "indexed": true,
          "internalType": "uint256",
          "name": "agreementId",
          "type": "uint256"
        }
      ],
      "name": "AgreementCancelled",
      "type": "event"
    },
    {
      "anonymous": false,
      "inputs": [
        {
          "indexed": true,
          "internalType": "uint256",
          "name": "agreementId",
          "type": "uint256"
        },
        {
          "indexed": true,
          "internalType": "address",
          "name": "consumer",
          "type": "address"
        },
        {
          "indexed": true,
          "internalType": "address",
          "name": "provider",
          "type": "address"
        },
        {
          "indexed": false,
          "internalType": "uint256",
          "name": "capacity",
          "type": "uint256"
        },
        {
          "indexed": false,
          "internalType": "uint256",
          "name": "totalPrice",
          "type": "uint256"
        },
        {
          "indexed": false,
          "internalType": "uint256",
          "name": "startTime",
          "type": "uint256"
        },
        {
          "indexed": false,
          "internalType": "uint256",
          "name": "endTime",
          "type": "uint256"
        }
      ],
      "name": "AgreementCreated",
      "type": "event"
    },
    {
      "anonymous": false,
      "inputs": [
        {
          "indexed": true,
          "internalType": "uint256",
          "name": "offeringId",
          "type": "uint256"
        },
        {
          "indexed": true,
          "internalType": "address",
          "name": "provider",
          "type": "address"
        },
        {
          "indexed": false,
          "internalType": "uint256",
          "name": "capacity",
          "type": "uint256"
        },
        {
          "indexed": false,
          "internalType": "uint256",
          "name": "pricePerGBPerDay",
          "type": "uint256"
        }
      ],
      "name": "OfferingCreated",
      "type": "event"
    },
    {
      "anonymous": false,
      "inputs": [
        {
          "indexed": true,
          "internalType": "uint256",
          "name": "offeringId",
          "type": "uint256"
        },
        {
          "indexed": true,
          "internalType": "address",
          "name": "provider",
          "type": "address"
        }
      ],
      "name": "OfferingRemoved",
      "type": "event"
    },
    {
      "anonymous": false,
      "inputs": [
        {
          "indexed": true,
          "internalType": "uint256",
          "name": "offeringId",
          "type": "uint256"
        },
        {
          "indexed": true,
          "internalType": "address",
          "name": "provider",
          "type": "address"
        },
        {
          "indexed": false,
          "internalType": "uint256",
          "name": "capacity",
          "type": "uint256"
        },
        {
          "indexed": false,
          "internalType": "uint256",
          "name": "pricePerGBPerDay",
          "type": "uint256"
        }
      ],
      "name": "OfferingUpdated",
      "type": "event"
    },
    {
      "stateMutability": "payable",
      "type": "fallback",
      "payable": true
    },
    {
      "inputs": [],
      "name": "agreementCounter",
      "outputs": [
        {
          "internalType": "uint256",
          "name": "",
          "type": "uint256"
        }
      ],
      "stateMutability": "view",
      "type": "function",
      "constant": true
    },
    {
      "inputs": [
        {
          "internalType": "uint256",
          "name": "",
          "type": "uint256"
        }
      ],
      "name": "agreements",
      "outputs": [
        {
          "internalType": "uint256",
          "name": "agreementId",
          "type": "uint256"
        },
        {
          "internalType": "address payable",
          "name": "consumer",
          "type": "address"
        },
        {
          "internalType": "address payable",
          "name": "provider",
          "type": "address"
        },
        {
          "internalType": "uint256",
          "name": "capacity",
          "type": "uint256"
        },
        {
          "internalType": "uint256",
          "name": "pricePerGBPerDay",
          "type": "uint256"
        },
        {
          "internalType": "uint256",
          "name": "totalPrice",
          "type": "uint256"
        },
        {
          "internalType": "uint256",
          "name": "startTime",
          "type": "uint256"
        },
        {
          "internalType": "uint256",
          "name": "endTime",
          "type": "uint256"
        },
        {
          "internalType": "bool",
          "name": "isActive",
          "type": "bool"
        }
      ],
      "stateMutability": "view",
      "type": "function",
      "constant": true
    },
    {
      "inputs": [],
      "name": "offeringCounter",
      "outputs": [
        {
          "internalType": "uint256",
          "name": "",
          "type": "uint256"
        }
      ],
      "stateMutability": "view",
      "type": "function",
      "constant": true
    },
    {
      "inputs": [
        {
          "internalType": "uint256",
          "name": "",
          "type": "uint256"
        }
      ],
      "name": "offerings",
      "outputs": [
        {
          "internalType": "uint256",
          "name": "offeringId",
          "type": "uint256"
        },
        {
          "internalType": "address payable",
          "name": "provider",
          "type": "address"
        },
        {
          "internalType": "uint256",
          "name": "capacity",
          "type": "uint256"
        },
        {
          "internalType": "uint256",
          "name": "pricePerGBPerDay",
          "type": "uint256"
        },
        {
          "internalType": "bool",
          "name": "isAvailable",
          "type": "bool"
        }
      ],
      "stateMutability": "view",
      "type": "function",
      "constant": true
    },
    {
      "stateMutability": "payable",
      "type": "receive",
      "payable": true
    },
    {
      "inputs": [
        {
          "internalType": "uint256",
          "name": "_capacity",
          "type": "uint256"
        },
        {
          "internalType": "uint256",
          "name": "_pricePerGBPerDay",
          "type": "uint256"
        }
      ],
      "name": "createOffering",
      "outputs": [],
      "stateMutability": "nonpayable",
      "type": "function"
    },
    {
      "inputs": [
        {
          "internalType": "uint256",
          "name": "_offeringId",
          "type": "uint256"
        },
        {
          "internalType": "uint256",
          "name": "_capacity",
          "type": "uint256"
        },
        {
          "internalType": "uint256",
          "name": "_pricePerGBPerDay",
          "type": "uint256"
        }
      ],
      "name": "updateOffering",
      "outputs": [],
      "stateMutability": "nonpayable",
      "type": "function"
    },
    {
      "inputs": [
        {
          "internalType": "uint256",
          "name": "_offeringId",
          "type": "uint256"
        }
      ],
      "name": "removeOffering",
      "outputs": [],
      "stateMutability": "nonpayable",
      "type": "function"
    },
    {
      "inputs": [
        {
          "internalType": "uint256",
          "name": "_offeringId",
          "type": "uint256"
        },
        {
          "internalType": "uint256",
          "name": "_capacity",
          "type": "uint256"
        },
        {
          "internalType": "uint256",
          "name": "_durationInDays",
          "type": "uint256"
        },
        {
          "internalType": "uint256",
          "name": "_startTime",
          "type": "uint256"
        }
      ],
      "name": "acceptOffering",
      "outputs": [],
      "stateMutability": "payable",
      "type": "function",
      "payable": true
    },
    {
      "inputs": [
        {
          "internalType": "uint256",
          "name": "_agreementId",
          "type": "uint256"
        }
      ],
      "name": "cancelAgreement",
      "outputs": [],
      "stateMutability": "nonpayable",
      "type": "function"
    }
  ],
  "bytecode": "0x608060405234801561001057600080fd5b50611a13806100206000396000f3fe60806040526004361061008a5760003560e01c80635686b54b116100595780635686b54b1461019e578063bd14de96146101c7578063caf391251461020c578063e0bc43f414610237578063e34fec1d14610260576100ca565b806314f79af714610105578063162625b014610130578063469342d41461015957806349b55a7614610182576100ca565b366100ca576040517f08c379a00000000000000000000000000000000000000000000000000000000081526004016100c1906114a8565b60405180910390fd5b6040517f08c379a00000000000000000000000000000000000000000000000000000000081526004016100fc90611668565b60405180910390fd5b34801561011157600080fd5b5061011a6102a1565b60405161012791906116a8565b60405180910390f35b34801561013c57600080fd5b5061015760048036038101906101529190610ecf565b6102a7565b005b34801561016557600080fd5b50610180600480360381019061017b9190610f0b565b610479565b005b61019c60048036038101906101979190610f5a565b6105dc565b005b3480156101aa57600080fd5b506101c560048036038101906101c09190610ea6565b610a31565b005b3480156101d357600080fd5b506101ee60048036038101906101e99190610ea6565b610c2e565b604051610203999897969594939291906116c3565b60405180910390f35b34801561021857600080fd5b50610221610cc9565b60405161022e91906116a8565b60405180910390f35b34801561024357600080fd5b5061025e60048036038101906102599190610ea6565b610ccf565b005b34801561026c57600080fd5b5061028760048036038101906102829190610ea6565b610e2e565b604051610298959493929190611750565b60405180910390f35b60015481565b600082116102ea576040517f08c379a00000000000000000000000000000000000000000000000000000000081526004016102e190611688565b60405180910390fd5b6000811161032d576040517f08c379a0000000000000000000000000000000000000000000000000000000008152600401610324906114e8565b60405180910390fd5b60008081548092919061033f9061194e565b91905055506040518060a0016040528060005481526020013373ffffffffffffffffffffffffffffffffffffffff1681526020018381526020018281526020016001151581525060026000805481526020019081526020016000206000820151816000015560208201518160010160006101000a81548173ffffffffffffffffffffffffffffffffffffffff021916908373ffffffffffffffffffffffffffffffffffffffff160217905550604082015181600201556060820151816003015560808201518160040160006101000a81548160ff0219169083151502179055509050503373ffffffffffffffffffffffffffffffffffffffff166000547f087968a08834117e38b66df2492688f4cae0a91f61dbc750b242feb4b0b87846848460405161046d9291906117a3565b60405180910390a35050565b60006002600085815260200190815260200160002090503373ffffffffffffffffffffffffffffffffffffffff168160010160009054906101000a900473ffffffffffffffffffffffffffffffffffffffff1673ffffffffffffffffffffffffffffffffffffffff1614610522576040517f08c379a000000000000000000000000000000000000000000000000000000000815260040161051990611608565b60405180910390fd5b8060040160009054906101000a900460ff16610573576040517f08c379a000000000000000000000000000000000000000000000000000000000815260040161056a90611628565b60405180910390fd5b8281600201819055508181600301819055503373ffffffffffffffffffffffffffffffffffffffff16847f5a924ef6f14bd1b5c8b137cf1f0a7172cf7a445998ada46ca74a17777be7fd2c85856040516105ce9291906117a3565b60405180910390a350505050565b60006002600086815260200190815260200160002090508060040160009054906101000a900460ff16610644576040517f08c379a000000000000000000000000000000000000000000000000000000000815260040161063b90611648565b60405180910390fd5b600084118015610658575080600201548411155b610697576040517f08c379a000000000000000000000000000000000000000000000000000000000815260040161068e906114c8565b60405180910390fd5b600083116106da576040517f08c379a00000000000000000000000000000000000000000000000000000000081526004016106d190611588565b60405180910390fd5b4282101561071d576040517f08c379a0000000000000000000000000000000000000000000000000000000008152600401610714906115a8565b60405180910390fd5b6000838260030154866107309190611878565b61073a9190611878565b905080341461077e576040517f08c379a000000000000000000000000000000000000000000000000000000000815260040161077590611528565b60405180910390fd5b600160008154809291906107919061194e565b9190505550600062015180856107a79190611878565b846107b29190611822565b905060405180610120016040528060015481526020013373ffffffffffffffffffffffffffffffffffffffff1681526020018460010160009054906101000a900473ffffffffffffffffffffffffffffffffffffffff1673ffffffffffffffffffffffffffffffffffffffff16815260200187815260200184600301548152602001838152602001858152602001828152602001600115158152506003600060015481526020019081526020016000206000820151816000015560208201518160010160006101000a81548173ffffffffffffffffffffffffffffffffffffffff021916908373ffffffffffffffffffffffffffffffffffffffff16021790555060408201518160020160006101000a81548173ffffffffffffffffffffffffffffffffffffffff021916908373ffffffffffffffffffffffffffffffffffffffff160217905550606082015181600301556080820151816004015560a0820151816005015560c0820151816006015560e082015181600701556101008201518160080160006101000a81548160ff0219169083151502179055509050508583600201600082825461096491906118d2565b925050819055506000836002015414156109965760008360040160006101000a81548160ff0219169083151502179055505b8260010160009054906101000a900473ffffffffffffffffffffffffffffffffffffffff1673ffffffffffffffffffffffffffffffffffffffff163373ffffffffffffffffffffffffffffffffffffffff166001547f87002208ecf3701e20e3abfb16deb23ab985227e81bc6f17f4d03697d0e0416d89868987604051610a2094939291906117cc565b60405180910390a450505050505050565b60006003600083815260200190815260200160002090508060080160009054906101000a900460ff16610a99576040517f08c379a0000000000000000000000000000000000000000000000000000000008152600401610a9090611548565b60405180910390fd5b8060010160009054906101000a900473ffffffffffffffffffffffffffffffffffffffff1673ffffffffffffffffffffffffffffffffffffffff163373ffffffffffffffffffffffffffffffffffffffff1614610b2b576040517f08c379a0000000000000000000000000000000000000000000000000000000008152600401610b2290611568565b60405180910390fd5b80600601544210610b71576040517f08c379a0000000000000000000000000000000000000000000000000000000008152600401610b6890611508565b60405180910390fd5b60008160080160006101000a81548160ff0219169083151502179055508060010160009054906101000a900473ffffffffffffffffffffffffffffffffffffffff1673ffffffffffffffffffffffffffffffffffffffff166108fc82600501549081150290604051600060405180830381858888f19350505050158015610bfc573d6000803e3d6000fd5b50817f0cae0523c4d6568388c55dcaeb921d927527a60000ca46adffedddf87225f0ec60405160405180910390a25050565b60036020528060005260406000206000915090508060000154908060010160009054906101000a900473ffffffffffffffffffffffffffffffffffffffff16908060020160009054906101000a900473ffffffffffffffffffffffffffffffffffffffff16908060030154908060040154908060050154908060060154908060070154908060080160009054906101000a900460ff16905089565b60005481565b60006002600083815260200190815260200160002090503373ffffffffffffffffffffffffffffffffffffffff168160010160009054906101000a900473ffffffffffffffffffffffffffffffffffffffff1673ffffffffffffffffffffffffffffffffffffffff1614610d78576040517f08c379a0000000000000000000000000000000000000000000000000000000008152600401610d6f906115e8565b60405180910390fd5b8060040160009054906101000a900460ff16610dc9576040517f08c379a0000000000000000000000000000000000000000000000000000000008152600401610dc0906115c8565b60405180910390fd5b60008160040160006101000a81548160ff0219169083151502179055503373ffffffffffffffffffffffffffffffffffffffff16827fe6d8849a3eeaf70bb066d6da258f3fd5ddcd0dd3d44b8c67f331cc5859f12d0760405160405180910390a35050565b60026020528060005260406000206000915090508060000154908060010160009054906101000a900473ffffffffffffffffffffffffffffffffffffffff16908060020154908060030154908060040160009054906101000a900460ff16905085565b600081359050610ea0816119c6565b92915050565b600060208284031215610eb857600080fd5b6000610ec684828501610e91565b91505092915050565b60008060408385031215610ee257600080fd5b6000610ef085828601610e91565b9250506020610f0185828601610e91565b9150509250929050565b600080600060608486031215610f2057600080fd5b6000610f2e86828701610e91565b9350506020610f3f86828701610e91565b9250506040610f5086828701610e91565b9150509250925092565b60008060008060808587031215610f7057600080fd5b6000610f7e87828801610e91565b9450506020610f8f87828801610e91565b9350506040610fa087828801610e91565b9250506060610fb187828801610e91565b91505092959194509250565b610fc681611906565b82525050565b610fd581611918565b82525050565b6000610fe8601c83611811565b91507f43616e6e6f7420616363657074204574686572206469726563746c79000000006000830152602082019050919050565b6000611028601a83611811565b91507f496e76616c6964206361706163697479207265717565737465640000000000006000830152602082019050919050565b6000611068601f83611811565b91507f5072696365206d7573742062652067726561746572207468616e207a65726f006000830152602082019050919050565b60006110a8601d83611811565b91507f41677265656d656e742068617320616c726561647920737461727465640000006000830152602082019050919050565b60006110e8601883611811565b91507f496e636f7272656374207061796d656e7420616d6f756e7400000000000000006000830152602082019050919050565b6000611128601783611811565b91507f41677265656d656e74206973206e6f74206163746976650000000000000000006000830152602082019050919050565b6000611168602683611811565b91507f4f6e6c7920636f6e73756d65722063616e2063616e63656c207468652061677260008301527f65656d656e7400000000000000000000000000000000000000000000000000006020830152604082019050919050565b60006111ce602283611811565b91507f4475726174696f6e206d7573742062652067726561746572207468616e207a6560008301527f726f0000000000000000000000000000000000000000000000000000000000006020830152604082019050919050565b6000611234602083611811565b91507f53746172742074696d65206d75737420626520696e20746865206675747572656000830152602082019050919050565b6000611274601b83611811565b91507f4f66666572696e6720697320616c72656164792072656d6f76656400000000006000830152602082019050919050565b60006112b4602783611811565b91507f4f6e6c792070726f76696465722063616e2072656d6f7665207468656972206f60008301527f66666572696e67000000000000000000000000000000000000000000000000006020830152604082019050919050565b600061131a602783611811565b91507f4f6e6c792070726f76696465722063616e20757064617465207468656972206f60008301527f66666572696e67000000000000000000000000000000000000000000000000006020830152604082019050919050565b6000611380601983611811565b91507f4f66666572696e67206973206e6f7420617661696c61626c65000000000000006000830152602082019050919050565b60006113c0601683611811565b91507f4f66666572696e67206e6f7420617661696c61626c65000000000000000000006000830152602082019050919050565b6000611400601383611811565b91507f496e76616c6964207472616e73616374696f6e000000000000000000000000006000830152602082019050919050565b6000611440602283611811565b91507f4361706163697479206d7573742062652067726561746572207468616e207a6560008301527f726f0000000000000000000000000000000000000000000000000000000000006020830152604082019050919050565b6114a281611944565b82525050565b600060208201905081810360008301526114c181610fdb565b9050919050565b600060208201905081810360008301526114e18161101b565b9050919050565b600060208201905081810360008301526115018161105b565b9050919050565b600060208201905081810360008301526115218161109b565b9050919050565b60006020820190508181036000830152611541816110db565b9050919050565b600060208201905081810360008301526115618161111b565b9050919050565b600060208201905081810360008301526115818161115b565b9050919050565b600060208201905081810360008301526115a1816111c1565b9050919050565b600060208201905081810360008301526115c181611227565b9050919050565b600060208201905081810360008301526115e181611267565b9050919050565b60006020820190508181036000830152611601816112a7565b9050919050565b600060208201905081810360008301526116218161130d565b9050919050565b6000602082019050818103600083015261164181611373565b9050919050565b60006020820190508181036000830152611661816113b3565b9050919050565b60006020820190508181036000830152611681816113f3565b9050919050565b600060208201905081810360008301526116a181611433565b9050919050565b60006020820190506116bd6000830184611499565b92915050565b6000610120820190506116d9600083018c611499565b6116e6602083018b610fbd565b6116f3604083018a610fbd565b6117006060830189611499565b61170d6080830188611499565b61171a60a0830187611499565b61172760c0830186611499565b61173460e0830185611499565b611742610100830184610fcc565b9a9950505050505050505050565b600060a0820190506117656000830188611499565b6117726020830187610fbd565b61177f6040830186611499565b61178c6060830185611499565b6117996080830184610fcc565b9695505050505050565b60006040820190506117b86000830185611499565b6117c56020830184611499565b9392505050565b60006080820190506117e16000830187611499565b6117ee6020830186611499565b6117fb6040830185611499565b6118086060830184611499565b95945050505050565b600082825260208201905092915050565b600061182d82611944565b915061183883611944565b9250827fffffffffffffffffffffffffffffffffffffffffffffffffffffffffffffffff0382111561186d5761186c611997565b5b828201905092915050565b600061188382611944565b915061188e83611944565b9250817fffffffffffffffffffffffffffffffffffffffffffffffffffffffffffffffff04831182151516156118c7576118c6611997565b5b828202905092915050565b60006118dd82611944565b91506118e883611944565b9250828210156118fb576118fa611997565b5b828203905092915050565b600061191182611924565b9050919050565b60008115159050919050565b600073ffffffffffffffffffffffffffffffffffffffff82169050919050565b6000819050919050565b600061195982611944565b91507fffffffffffffffffffffffffffffffffffffffffffffffffffffffffffffffff82141561198c5761198b611997565b5b600182019050919050565b7f4e487b7100000000000000000000000000000000000000000000000000000000600052601160045260246000fd5b6119cf81611944565b81146119da57600080fd5b5056fea264697066735822122082b814dbb8b2ee0749b2427ad6161338e552c0e4b7b7a829425689bc38e8fbd164736f6c63430008000033",
  "immutableReferences": {},
  "source": "// SPDX-License-Identifier: MIT\r\npragma solidity ^0.8.0;\r\n\r\ncontract DecentralizedStoragePlatform {\r\n    // Storage offering made by a provider\r\n    struct StorageOffering {\r\n        uint256 offeringId;\r\n        address payable provider;\r\n        uint256 capacity; // in GB\r\n        uint256 pricePerGBPerDay; // in wei\r\n        bool isAvailable;\r\n    }\r\n\r\n    // Agreement between a consumer and a provider\r\n    struct StorageAgreement {\r\n        uint256 agreementId;\r\n        address payable consumer;\r\n        address payable provider;\r\n        uint256 capacity; // in GB\r\n        uint256 pricePerGBPerDay; // in wei\r\n        uint256 totalPrice; // in wei\r\n        uint256 startTime; // timestamp\r\n        uint256 endTime; // timestamp\r\n        bool isActive;\r\n    }\r\n\r\n    uint256 public offeringCounter;\r\n    uint256 public agreementCounter;\r\n\r\n    mapping(uint256 => StorageOffering) public offerings;\r\n    mapping(uint256 => StorageAgreement) public agreements;\r\n\r\n    // Events\r\n    event OfferingCreated(uint256 indexed offeringId, address indexed provider, uint256 capacity, uint256 pricePerGBPerDay);\r\n    event OfferingUpdated(uint256 indexed offeringId, address indexed provider, uint256 capacity, uint256 pricePerGBPerDay);\r\n    event OfferingRemoved(uint256 indexed offeringId, address indexed provider);\r\n    event AgreementCreated(\r\n        uint256 indexed agreementId,\r\n        address indexed consumer,\r\n        address indexed provider,\r\n        uint256 capacity,\r\n        uint256 totalPrice,\r\n        uint256 startTime,\r\n        uint256 endTime\r\n    );\r\n    event AgreementCancelled(uint256 indexed agreementId);\r\n\r\n    // Providers create new offerings\r\n    function createOffering(uint256 _capacity, uint256 _pricePerGBPerDay) external {\r\n        require(_capacity > 0, \"Capacity must be greater than zero\");\r\n        require(_pricePerGBPerDay > 0, \"Price must be greater than zero\");\r\n\r\n        offeringCounter++;\r\n        offerings[offeringCounter] = StorageOffering({\r\n            offeringId: offeringCounter,\r\n            provider: payable(msg.sender),\r\n            capacity: _capacity,\r\n            pricePerGBPerDay: _pricePerGBPerDay,\r\n            isAvailable: true\r\n        });\r\n\r\n        emit OfferingCreated(offeringCounter, msg.sender, _capacity, _pricePerGBPerDay);\r\n    }\r\n\r\n    // Providers can update their offering\r\n    function updateOffering(uint256 _offeringId, uint256 _capacity, uint256 _pricePerGBPerDay) external {\r\n        StorageOffering storage offering = offerings[_offeringId];\r\n        require(offering.provider == msg.sender, \"Only provider can update their offering\");\r\n        require(offering.isAvailable, \"Offering is not available\");\r\n\r\n        offering.capacity = _capacity;\r\n        offering.pricePerGBPerDay = _pricePerGBPerDay;\r\n\r\n        emit OfferingUpdated(_offeringId, msg.sender, _capacity, _pricePerGBPerDay);\r\n    }\r\n\r\n    // Providers can remove their offering\r\n    function removeOffering(uint256 _offeringId) external {\r\n        StorageOffering storage offering = offerings[_offeringId];\r\n        require(offering.provider == msg.sender, \"Only provider can remove their offering\");\r\n        require(offering.isAvailable, \"Offering is already removed\");\r\n\r\n        offering.isAvailable = false;\r\n\r\n        emit OfferingRemoved(_offeringId, msg.sender);\r\n    }\r\n\r\n    // Consumers accept an offering\r\n    function acceptOffering(uint256 _offeringId, uint256 _capacity, uint256 _durationInDays, uint256 _startTime) external payable {\r\n        StorageOffering storage offering = offerings[_offeringId];\r\n        require(offering.isAvailable, \"Offering not available\");\r\n        require(_capacity > 0 && _capacity <= offering.capacity, \"Invalid capacity requested\");\r\n        require(_durationInDays > 0, \"Duration must be greater than zero\");\r\n        require(_startTime >= block.timestamp, \"Start time must be in the future\");\r\n\r\n        uint256 totalPrice = _capacity * offering.pricePerGBPerDay * _durationInDays;\r\n        require(msg.value == totalPrice, \"Incorrect payment amount\");\r\n\r\n        agreementCounter++;\r\n        uint256 endTime = _startTime + (_durationInDays * 1 days);\r\n\r\n        agreements[agreementCounter] = StorageAgreement({\r\n            agreementId: agreementCounter,\r\n            consumer: payable(msg.sender),\r\n            provider: offering.provider,\r\n            capacity: _capacity,\r\n            pricePerGBPerDay: offering.pricePerGBPerDay,\r\n            totalPrice: totalPrice,\r\n            startTime: _startTime,\r\n            endTime: endTime,\r\n            isActive: true\r\n        });\r\n\r\n        // Reduce the available capacity of the offering\r\n        offering.capacity -= _capacity;\r\n        if (offering.capacity == 0) {\r\n            offering.isAvailable = false;\r\n        }\r\n\r\n        emit AgreementCreated(\r\n            agreementCounter,\r\n            msg.sender,\r\n            offering.provider,\r\n            _capacity,\r\n            totalPrice,\r\n            _startTime,\r\n            endTime\r\n        );\r\n    }\r\n\r\n    // Consumers can cancel the agreement before it starts\r\n    function cancelAgreement(uint256 _agreementId) external {\r\n        StorageAgreement storage agreement = agreements[_agreementId];\r\n        require(agreement.isActive, \"Agreement is not active\");\r\n        require(msg.sender == agreement.consumer, \"Only consumer can cancel the agreement\");\r\n        require(block.timestamp < agreement.startTime, \"Agreement has already started\");\r\n        agreement.isActive = false;\r\n        // Refund the consumer\r\n        agreement.consumer.transfer(agreement.totalPrice);\r\n        emit AgreementCancelled(_agreementId);\r\n    }\r\n    // Fallback and receive functions to handle plain Ether transfers\r\n    fallback() external payable {\r\n        revert(\"Invalid transaction\");\r\n    }\r\n    receive() external payable {\r\n        revert(\"Cannot accept Ether directly\");\r\n    }\r\n\r\n    // Additional functions for providers to withdraw funds, etc., can be added as needed\r\n}\r\n",
  "sourcePath": "C:\\Users\\odolz\\Desktop\\3y1t\\Blockchain\\endterm-contracts\\contracts\\DecentralizedStoragePlatform.sol",
  "compiler": {
    "name": "solc",
    "version": "0.8.0+commit.c7dfd78e.Emscripten.clang"
  },
  "schemaVersion": "3.4.16",
  "updatedAt": "2024-10-22T10:03:03.563Z",
  "networkType": "ethereum",
  "devdoc": {
    "kind": "dev",
    "methods": {},
    "version": 1
  },
  "userdoc": {
    "kind": "user",
    "methods": {},
    "version": 1
  }
}