{
  "contractName": "DecentralizedStoragePlatform",
  "abi": [
    {
      "anonymous": false,
      "inputs": [
        {
          "indexed": true,
          "internalType": "uint256",
          "name": "agreementId",
          "type": "uint256"
        }
      ],
      "name": "AgreementCancelled",
      "type": "event"
    },
    {
      "anonymous": false,
      "inputs": [
        {
          "indexed": true,
          "internalType": "uint256",
          "name": "agreementId",
          "type": "uint256"
        }
      ],
      "name": "AgreementCompleted",
      "type": "event"
    },
    {
      "anonymous": false,
      "inputs": [
        {
          "indexed": true,
          "internalType": "uint256",
          "name": "agreementId",
          "type": "uint256"
        },
        {
          "indexed": true,
          "internalType": "address",
          "name": "consumer",
          "type": "address"
        },
        {
          "indexed": true,
          "internalType": "address",
          "name": "provider",
          "type": "address"
        },
        {
          "indexed": false,
          "internalType": "uint256",
          "name": "capacity",
          "type": "uint256"
        },
        {
          "indexed": false,
          "internalType": "uint256",
          "name": "totalPrice",
          "type": "uint256"
        },
        {
          "indexed": false,
          "internalType": "uint256",
          "name": "startTime",
          "type": "uint256"
        },
        {
          "indexed": false,
          "internalType": "uint256",
          "name": "endTime",
          "type": "uint256"
        }
      ],
      "name": "AgreementCreated",
      "type": "event"
    },
    {
      "anonymous": false,
      "inputs": [
        {
          "indexed": true,
          "internalType": "address",
          "name": "provider",
          "type": "address"
        },
        {
          "indexed": false,
          "internalType": "uint256",
          "name": "capacity",
          "type": "uint256"
        },
        {
          "indexed": false,
          "internalType": "uint256",
          "name": "pricePerGBPerDay",
          "type": "uint256"
        }
      ],
      "name": "OfferingCreated",
      "type": "event"
    },
    {
      "anonymous": false,
      "inputs": [
        {
          "indexed": true,
          "internalType": "address",
          "name": "provider",
          "type": "address"
        }
      ],
      "name": "OfferingRemoved",
      "type": "event"
    },
    {
      "anonymous": false,
      "inputs": [
        {
          "indexed": true,
          "internalType": "address",
          "name": "provider",
          "type": "address"
        },
        {
          "indexed": false,
          "internalType": "uint256",
          "name": "capacity",
          "type": "uint256"
        },
        {
          "indexed": false,
          "internalType": "uint256",
          "name": "pricePerGBPerDay",
          "type": "uint256"
        }
      ],
      "name": "OfferingUpdated",
      "type": "event"
    },
    {
      "anonymous": false,
      "inputs": [
        {
          "indexed": true,
          "internalType": "uint256",
          "name": "agreementId",
          "type": "uint256"
        },
        {
          "indexed": false,
          "internalType": "uint256",
          "name": "amount",
          "type": "uint256"
        }
      ],
      "name": "PaymentMade",
      "type": "event"
    },
    {
      "stateMutability": "payable",
      "type": "fallback",
      "payable": true
    },
    {
      "inputs": [],
      "name": "agreementCounter",
      "outputs": [
        {
          "internalType": "uint256",
          "name": "",
          "type": "uint256"
        }
      ],
      "stateMutability": "view",
      "type": "function",
      "constant": true
    },
    {
      "inputs": [
        {
          "internalType": "uint256",
          "name": "",
          "type": "uint256"
        }
      ],
      "name": "agreements",
      "outputs": [
        {
          "internalType": "uint256",
          "name": "agreementId",
          "type": "uint256"
        },
        {
          "internalType": "address payable",
          "name": "consumer",
          "type": "address"
        },
        {
          "internalType": "address payable",
          "name": "provider",
          "type": "address"
        },
        {
          "internalType": "uint256",
          "name": "capacity",
          "type": "uint256"
        },
        {
          "internalType": "uint256",
          "name": "pricePerGBPerDay",
          "type": "uint256"
        },
        {
          "internalType": "uint256",
          "name": "totalPrice",
          "type": "uint256"
        },
        {
          "internalType": "uint256",
          "name": "startTime",
          "type": "uint256"
        },
        {
          "internalType": "uint256",
          "name": "endTime",
          "type": "uint256"
        },
        {
          "internalType": "bool",
          "name": "isActive",
          "type": "bool"
        },
        {
          "internalType": "bool",
          "name": "isPaid",
          "type": "bool"
        }
      ],
      "stateMutability": "view",
      "type": "function",
      "constant": true
    },
    {
      "inputs": [
        {
          "internalType": "address",
          "name": "",
          "type": "address"
        }
      ],
      "name": "offerings",
      "outputs": [
        {
          "internalType": "address payable",
          "name": "provider",
          "type": "address"
        },
        {
          "internalType": "uint256",
          "name": "capacity",
          "type": "uint256"
        },
        {
          "internalType": "uint256",
          "name": "pricePerGBPerDay",
          "type": "uint256"
        },
        {
          "internalType": "bool",
          "name": "isAvailable",
          "type": "bool"
        }
      ],
      "stateMutability": "view",
      "type": "function",
      "constant": true
    },
    {
      "stateMutability": "payable",
      "type": "receive",
      "payable": true
    },
    {
      "inputs": [
        {
          "internalType": "uint256",
          "name": "_capacity",
          "type": "uint256"
        },
        {
          "internalType": "uint256",
          "name": "_pricePerGBPerDay",
          "type": "uint256"
        }
      ],
      "name": "createOrUpdateOffering",
      "outputs": [],
      "stateMutability": "nonpayable",
      "type": "function"
    },
    {
      "inputs": [],
      "name": "removeOffering",
      "outputs": [],
      "stateMutability": "nonpayable",
      "type": "function"
    },
    {
      "inputs": [
        {
          "internalType": "address payable",
          "name": "_provider",
          "type": "address"
        },
        {
          "internalType": "uint256",
          "name": "_capacity",
          "type": "uint256"
        },
        {
          "internalType": "uint256",
          "name": "_durationInDays",
          "type": "uint256"
        }
      ],
      "name": "createAgreement",
      "outputs": [],
      "stateMutability": "payable",
      "type": "function",
      "payable": true
    },
    {
      "inputs": [
        {
          "internalType": "uint256",
          "name": "_agreementId",
          "type": "uint256"
        }
      ],
      "name": "completeAgreement",
      "outputs": [],
      "stateMutability": "nonpayable",
      "type": "function"
    },
    {
      "inputs": [
        {
          "internalType": "uint256",
          "name": "_agreementId",
          "type": "uint256"
        }
      ],
      "name": "cancelAgreement",
      "outputs": [],
      "stateMutability": "nonpayable",
      "type": "function"
    }
  ],
  "bytecode": "0x608060405234801561001057600080fd5b5061194d806100206000396000f3fe60806040526004361061007f5760003560e01c80638458cf8e1161004e5780638458cf8e146101935780639d52463d146101bc578063b40073f5146101d3578063bd14de9614610213576100bf565b806314f79af7146100fa5780634cc19655146101255780635686b54b1461014157806374f471581461016a576100bf565b366100bf576040517f08c379a00000000000000000000000000000000000000000000000000000000081526004016100b69061145a565b60405180910390fd5b6040517f08c379a00000000000000000000000000000000000000000000000000000000081526004016100f1906115ba565b60405180910390fd5b34801561010657600080fd5b5061010f610259565b60405161011c919061161a565b60405180910390f35b61013f600480360381019061013a9190610f1c565b61025f565b005b34801561014d57600080fd5b5061016860048036038101906101639190610f6b565b610676565b005b34801561017657600080fd5b50610191600480360381019061018c9190610f94565b610873565b005b34801561019f57600080fd5b506101ba60048036038101906101b59190610f6b565b610a44565b005b3480156101c857600080fd5b506101d1610c42565b005b3480156101df57600080fd5b506101fa60048036038101906101f59190610ef3565b610da9565b60405161020a9493929190611415565b60405180910390f35b34801561021f57600080fd5b5061023a60048036038101906102359190610f6b565b610e06565b6040516102509a99989796959493929190611635565b60405180910390f35b60005481565b6000600160008573ffffffffffffffffffffffffffffffffffffffff1673ffffffffffffffffffffffffffffffffffffffff16815260200190815260200160002090508060030160009054906101000a900460ff166102f3576040517f08c379a00000000000000000000000000000000000000000000000000000000081526004016102ea9061159a565b60405180910390fd5b600083118015610307575080600101548311155b610346576040517f08c379a000000000000000000000000000000000000000000000000000000000815260040161033d9061147a565b60405180910390fd5b60008211610389576040517f08c379a00000000000000000000000000000000000000000000000000000000081526004016103809061155a565b60405180910390fd5b60008282600201548561039c91906117a6565b6103a691906117a6565b90508034146103ea576040517f08c379a00000000000000000000000000000000000000000000000000000000081526004016103e1906114da565b60405180910390fd5b6000808154809291906103fc9061185a565b919050555060004290506000620151808561041791906117a6565b826104229190611750565b905060405180610140016040528060005481526020013373ffffffffffffffffffffffffffffffffffffffff1681526020018873ffffffffffffffffffffffffffffffffffffffff168152602001878152602001856002015481526020018481526020018381526020018281526020016001151581526020016001151581525060026000805481526020019081526020016000206000820151816000015560208201518160010160006101000a81548173ffffffffffffffffffffffffffffffffffffffff021916908373ffffffffffffffffffffffffffffffffffffffff16021790555060408201518160020160006101000a81548173ffffffffffffffffffffffffffffffffffffffff021916908373ffffffffffffffffffffffffffffffffffffffff160217905550606082015181600301556080820151816004015560a0820151816005015560c0820151816006015560e082015181600701556101008201518160080160006101000a81548160ff0219169083151502179055506101208201518160080160016101000a81548160ff0219169083151502179055509050508673ffffffffffffffffffffffffffffffffffffffff163373ffffffffffffffffffffffffffffffffffffffff166000547f87002208ecf3701e20e3abfb16deb23ab985227e81bc6f17f4d03697d0e0416d8987878760405161062b94939291906116fa565b60405180910390a46000547f0e9e4ec6fa83fe2a2893fd5d6517a890df20f72cc0ba40495b21e65d1222350384604051610665919061161a565b60405180910390a250505050505050565b60006002600083815260200190815260200160002090508060080160009054906101000a900460ff166106de576040517f08c379a00000000000000000000000000000000000000000000000000000000081526004016106d5906114fa565b60405180910390fd5b8060010160009054906101000a900473ffffffffffffffffffffffffffffffffffffffff1673ffffffffffffffffffffffffffffffffffffffff163373ffffffffffffffffffffffffffffffffffffffff1614610770576040517f08c379a00000000000000000000000000000000000000000000000000000000081526004016107679061151a565b60405180910390fd5b806006015442106107b6576040517f08c379a00000000000000000000000000000000000000000000000000000000081526004016107ad906114ba565b60405180910390fd5b60008160080160006101000a81548160ff0219169083151502179055508060010160009054906101000a900473ffffffffffffffffffffffffffffffffffffffff1673ffffffffffffffffffffffffffffffffffffffff166108fc82600501549081150290604051600060405180830381858888f19350505050158015610841573d6000803e3d6000fd5b50817f0cae0523c4d6568388c55dcaeb921d927527a60000ca46adffedddf87225f0ec60405160405180910390a25050565b600082116108b6576040517f08c379a00000000000000000000000000000000000000000000000000000000081526004016108ad906115fa565b60405180910390fd5b600081116108f9576040517f08c379a00000000000000000000000000000000000000000000000000000000081526004016108f09061149a565b60405180910390fd5b60405180608001604052803373ffffffffffffffffffffffffffffffffffffffff16815260200183815260200182815260200160011515815250600160003373ffffffffffffffffffffffffffffffffffffffff1673ffffffffffffffffffffffffffffffffffffffff16815260200190815260200160002060008201518160000160006101000a81548173ffffffffffffffffffffffffffffffffffffffff021916908373ffffffffffffffffffffffffffffffffffffffff160217905550602082015181600101556040820151816002015560608201518160030160006101000a81548160ff0219169083151502179055509050503373ffffffffffffffffffffffffffffffffffffffff167f903dd90188029f902752d0db34efdc7dbe845f415b374d09ad05d2af9e5da6778383604051610a389291906116d1565b60405180910390a25050565b60006002600083815260200190815260200160002090508060080160009054906101000a900460ff16610aac576040517f08c379a0000000000000000000000000000000000000000000000000000000008152600401610aa3906114fa565b60405180910390fd5b8060020160009054906101000a900473ffffffffffffffffffffffffffffffffffffffff1673ffffffffffffffffffffffffffffffffffffffff163373ffffffffffffffffffffffffffffffffffffffff1614610b3e576040517f08c379a0000000000000000000000000000000000000000000000000000000008152600401610b359061157a565b60405180910390fd5b8060070154421015610b85576040517f08c379a0000000000000000000000000000000000000000000000000000000008152600401610b7c906115da565b60405180910390fd5b60008160080160006101000a81548160ff0219169083151502179055508060020160009054906101000a900473ffffffffffffffffffffffffffffffffffffffff1673ffffffffffffffffffffffffffffffffffffffff166108fc82600501549081150290604051600060405180830381858888f19350505050158015610c10573d6000803e3d6000fd5b50817f5a098ab2367201784eb2ad9b7e2f0d916557002385b83ddcc19293f40c4e0ed060405160405180910390a25050565b6000600160003373ffffffffffffffffffffffffffffffffffffffff1673ffffffffffffffffffffffffffffffffffffffff16815260200190815260200160002090508060030160009054906101000a900460ff16610cd6576040517f08c379a0000000000000000000000000000000000000000000000000000000008152600401610ccd9061153a565b60405180910390fd5b600160003373ffffffffffffffffffffffffffffffffffffffff1673ffffffffffffffffffffffffffffffffffffffff168152602001908152602001600020600080820160006101000a81549073ffffffffffffffffffffffffffffffffffffffff0219169055600182016000905560028201600090556003820160006101000a81549060ff021916905550503373ffffffffffffffffffffffffffffffffffffffff167f165a5e16a2d94ea69378548951d52a5682d51131c4cceb12264403dcab0861ed60405160405180910390a250565b60016020528060005260406000206000915090508060000160009054906101000a900473ffffffffffffffffffffffffffffffffffffffff16908060010154908060020154908060030160009054906101000a900460ff16905084565b60026020528060005260406000206000915090508060000154908060010160009054906101000a900473ffffffffffffffffffffffffffffffffffffffff16908060020160009054906101000a900473ffffffffffffffffffffffffffffffffffffffff16908060030154908060040154908060050154908060060154908060070154908060080160009054906101000a900460ff16908060080160019054906101000a900460ff1690508a565b600081359050610ec3816118d2565b92915050565b600081359050610ed8816118e9565b92915050565b600081359050610eed81611900565b92915050565b600060208284031215610f0557600080fd5b6000610f1384828501610eb4565b91505092915050565b600080600060608486031215610f3157600080fd5b6000610f3f86828701610ec9565b9350506020610f5086828701610ede565b9250506040610f6186828701610ede565b9150509250925092565b600060208284031215610f7d57600080fd5b6000610f8b84828501610ede565b91505092915050565b60008060408385031215610fa757600080fd5b6000610fb585828601610ede565b9250506020610fc685828601610ede565b9150509250929050565b610fd981611812565b82525050565b610fe881611824565b82525050565b6000610ffb601c8361173f565b91507f43616e6e6f7420616363657074204574686572206469726563746c79000000006000830152602082019050919050565b600061103b601a8361173f565b91507f496e76616c6964206361706163697479207265717565737465640000000000006000830152602082019050919050565b600061107b601f8361173f565b91507f5072696365206d7573742062652067726561746572207468616e207a65726f006000830152602082019050919050565b60006110bb601d8361173f565b91507f41677265656d656e742068617320616c726561647920737461727465640000006000830152602082019050919050565b60006110fb60188361173f565b91507f496e636f7272656374207061796d656e7420616d6f756e7400000000000000006000830152602082019050919050565b600061113b60178361173f565b91507f41677265656d656e74206973206e6f74206163746976650000000000000000006000830152602082019050919050565b600061117b60268361173f565b91507f4f6e6c7920636f6e73756d65722063616e2063616e63656c207468652061677260008301527f65656d656e7400000000000000000000000000000000000000000000000000006020830152604082019050919050565b60006111e160158361173f565b91507f4e6f206f66666572696e6720746f2072656d6f766500000000000000000000006000830152602082019050919050565b600061122160228361173f565b91507f4475726174696f6e206d7573742062652067726561746572207468616e207a6560008301527f726f0000000000000000000000000000000000000000000000000000000000006020830152604082019050919050565b600061128760288361173f565b91507f4f6e6c792070726f76696465722063616e20636f6d706c65746520746865206160008301527f677265656d656e740000000000000000000000000000000000000000000000006020830152604082019050919050565b60006112ed60168361173f565b91507f4f66666572696e67206e6f7420617661696c61626c65000000000000000000006000830152602082019050919050565b600061132d60138361173f565b91507f496e76616c6964207472616e73616374696f6e000000000000000000000000006000830152602082019050919050565b600061136d60208361173f565b91507f41677265656d656e74206475726174696f6e206e6f742079657420656e6465646000830152602082019050919050565b60006113ad60228361173f565b91507f4361706163697479206d7573742062652067726561746572207468616e207a6560008301527f726f0000000000000000000000000000000000000000000000000000000000006020830152604082019050919050565b61140f81611850565b82525050565b600060808201905061142a6000830187610fd0565b6114376020830186611406565b6114446040830185611406565b6114516060830184610fdf565b95945050505050565b6000602082019050818103600083015261147381610fee565b9050919050565b600060208201905081810360008301526114938161102e565b9050919050565b600060208201905081810360008301526114b38161106e565b9050919050565b600060208201905081810360008301526114d3816110ae565b9050919050565b600060208201905081810360008301526114f3816110ee565b9050919050565b600060208201905081810360008301526115138161112e565b9050919050565b600060208201905081810360008301526115338161116e565b9050919050565b60006020820190508181036000830152611553816111d4565b9050919050565b6000602082019050818103600083015261157381611214565b9050919050565b600060208201905081810360008301526115938161127a565b9050919050565b600060208201905081810360008301526115b3816112e0565b9050919050565b600060208201905081810360008301526115d381611320565b9050919050565b600060208201905081810360008301526115f381611360565b9050919050565b60006020820190508181036000830152611613816113a0565b9050919050565b600060208201905061162f6000830184611406565b92915050565b60006101408201905061164b600083018d611406565b611658602083018c610fd0565b611665604083018b610fd0565b611672606083018a611406565b61167f6080830189611406565b61168c60a0830188611406565b61169960c0830187611406565b6116a660e0830186611406565b6116b4610100830185610fdf565b6116c2610120830184610fdf565b9b9a5050505050505050505050565b60006040820190506116e66000830185611406565b6116f36020830184611406565b9392505050565b600060808201905061170f6000830187611406565b61171c6020830186611406565b6117296040830185611406565b6117366060830184611406565b95945050505050565b600082825260208201905092915050565b600061175b82611850565b915061176683611850565b9250827fffffffffffffffffffffffffffffffffffffffffffffffffffffffffffffffff0382111561179b5761179a6118a3565b5b828201905092915050565b60006117b182611850565b91506117bc83611850565b9250817fffffffffffffffffffffffffffffffffffffffffffffffffffffffffffffffff04831182151516156117f5576117f46118a3565b5b828202905092915050565b600061180b82611830565b9050919050565b600061181d82611830565b9050919050565b60008115159050919050565b600073ffffffffffffffffffffffffffffffffffffffff82169050919050565b6000819050919050565b600061186582611850565b91507fffffffffffffffffffffffffffffffffffffffffffffffffffffffffffffffff821415611898576118976118a3565b5b600182019050919050565b7f4e487b7100000000000000000000000000000000000000000000000000000000600052601160045260246000fd5b6118db81611800565b81146118e657600080fd5b50565b6118f281611812565b81146118fd57600080fd5b50565b61190981611850565b811461191457600080fd5b5056fea26469706673582212201423b493541c97283e463338efe3e0f61db9baaf5d210477f6a3b2b9e597b7ba64736f6c63430008000033",
  "immutableReferences": {},
  "source": "// SPDX-License-Identifier: MIT\r\npragma solidity ^0.8.0;\r\n\r\ncontract DecentralizedStoragePlatform {\r\n    // Storage offering made by a provider\r\n    struct StorageOffering {\r\n        address payable provider;\r\n        uint256 capacity; // in GB\r\n        uint256 pricePerGBPerDay; // in wei\r\n        bool isAvailable;\r\n    }\r\n\r\n    // Agreement between a consumer and a provider\r\n    struct StorageAgreement {\r\n        uint256 agreementId;\r\n        address payable consumer;\r\n        address payable provider;\r\n        uint256 capacity; // in GB\r\n        uint256 pricePerGBPerDay; // in wei\r\n        uint256 totalPrice; // in wei\r\n        uint256 startTime; // timestamp\r\n        uint256 endTime; // timestamp\r\n        bool isActive;\r\n        bool isPaid;\r\n    }\r\n\r\n    // Counters\r\n    uint256 public agreementCounter;\r\n\r\n    // Mappings\r\n    mapping(address => StorageOffering) public offerings;\r\n    mapping(uint256 => StorageAgreement) public agreements;\r\n\r\n    // Events\r\n    event OfferingCreated(address indexed provider, uint256 capacity, uint256 pricePerGBPerDay);\r\n    event OfferingUpdated(address indexed provider, uint256 capacity, uint256 pricePerGBPerDay);\r\n    event OfferingRemoved(address indexed provider);\r\n    event AgreementCreated(\r\n        uint256 indexed agreementId,\r\n        address indexed consumer,\r\n        address indexed provider,\r\n        uint256 capacity,\r\n        uint256 totalPrice,\r\n        uint256 startTime,\r\n        uint256 endTime\r\n    );\r\n    event PaymentMade(uint256 indexed agreementId, uint256 amount);\r\n    event AgreementCompleted(uint256 indexed agreementId);\r\n    event AgreementCancelled(uint256 indexed agreementId);\r\n\r\n    // Providers create or update their storage offering\r\n    function createOrUpdateOffering(uint256 _capacity, uint256 _pricePerGBPerDay) external {\r\n        require(_capacity > 0, \"Capacity must be greater than zero\");\r\n        require(_pricePerGBPerDay > 0, \"Price must be greater than zero\");\r\n\r\n        offerings[msg.sender] = StorageOffering({\r\n            provider: payable(msg.sender),\r\n            capacity: _capacity,\r\n            pricePerGBPerDay: _pricePerGBPerDay,\r\n            isAvailable: true\r\n        });\r\n\r\n        emit OfferingCreated(msg.sender, _capacity, _pricePerGBPerDay);\r\n    }\r\n\r\n    // Providers can remove their offering\r\n    function removeOffering() external {\r\n        StorageOffering storage offering = offerings[msg.sender];\r\n        require(offering.isAvailable, \"No offering to remove\");\r\n\r\n        delete offerings[msg.sender];\r\n\r\n        emit OfferingRemoved(msg.sender);\r\n    }\r\n\r\n    // Consumers create an agreement with a provider\r\n    function createAgreement(address payable _provider, uint256 _capacity, uint256 _durationInDays) external payable {\r\n        StorageOffering storage offering = offerings[_provider];\r\n        require(offering.isAvailable, \"Offering not available\");\r\n        require(_capacity > 0 && _capacity <= offering.capacity, \"Invalid capacity requested\");\r\n        require(_durationInDays > 0, \"Duration must be greater than zero\");\r\n\r\n        uint256 totalPrice = _capacity * offering.pricePerGBPerDay * _durationInDays;\r\n        require(msg.value == totalPrice, \"Incorrect payment amount\");\r\n\r\n        agreementCounter++;\r\n        uint256 startTime = block.timestamp;\r\n        uint256 endTime = startTime + (_durationInDays * 1 days);\r\n\r\n        agreements[agreementCounter] = StorageAgreement({\r\n            agreementId: agreementCounter,\r\n            consumer: payable(msg.sender),\r\n            provider: _provider,\r\n            capacity: _capacity,\r\n            pricePerGBPerDay: offering.pricePerGBPerDay,\r\n            totalPrice: totalPrice,\r\n            startTime: startTime,\r\n            endTime: endTime,\r\n            isActive: true,\r\n            isPaid: true\r\n        });\r\n\r\n        emit AgreementCreated(\r\n            agreementCounter,\r\n            msg.sender,\r\n            _provider,\r\n            _capacity,\r\n            totalPrice,\r\n            startTime,\r\n            endTime\r\n        );\r\n        emit PaymentMade(agreementCounter, totalPrice);\r\n    }\r\n\r\n    // Providers confirm completion of the agreement\r\n    function completeAgreement(uint256 _agreementId) external {\r\n        StorageAgreement storage agreement = agreements[_agreementId];\r\n        require(agreement.isActive, \"Agreement is not active\");\r\n        require(msg.sender == agreement.provider, \"Only provider can complete the agreement\");\r\n        require(block.timestamp >= agreement.endTime, \"Agreement duration not yet ended\");\r\n\r\n        agreement.isActive = false;\r\n\r\n        // Transfer payment to the provider\r\n        agreement.provider.transfer(agreement.totalPrice);\r\n\r\n        emit AgreementCompleted(_agreementId);\r\n    }\r\n\r\n    // Consumers can cancel the agreement before it starts\r\n    function cancelAgreement(uint256 _agreementId) external {\r\n        StorageAgreement storage agreement = agreements[_agreementId];\r\n        require(agreement.isActive, \"Agreement is not active\");\r\n        require(msg.sender == agreement.consumer, \"Only consumer can cancel the agreement\");\r\n        require(block.timestamp < agreement.startTime, \"Agreement has already started\");\r\n\r\n        agreement.isActive = false;\r\n\r\n        // Refund the consumer\r\n        agreement.consumer.transfer(agreement.totalPrice);\r\n\r\n        emit AgreementCancelled(_agreementId);\r\n    }\r\n\r\n    // Fallback and receive functions to handle plain Ether transfers\r\n    fallback() external payable {\r\n        revert(\"Invalid transaction\");\r\n    }\r\n\r\n    receive() external payable {\r\n        revert(\"Cannot accept Ether directly\");\r\n    }\r\n}\r\n",
  "sourcePath": "C:\\Users\\odolz\\Desktop\\3y1t\\Blockchain\\endterm-contracts\\contracts\\DecentralizedStoragePlatform.sol",
  "compiler": {
    "name": "solc",
    "version": "0.8.0+commit.c7dfd78e.Emscripten.clang"
  },
  "schemaVersion": "3.4.16",
  "updatedAt": "2024-10-21T19:13:21.347Z",
  "networkType": "ethereum",
  "devdoc": {
    "kind": "dev",
    "methods": {},
    "version": 1
  },
  "userdoc": {
    "kind": "user",
    "methods": {},
    "version": 1
  }
}